{
  "_format": "hh-sol-artifact-1",
  "contractName": "CampaignFactory",
  "sourceName": "contracts/Campaign.sol",
  "abi": [
    {
      "anonymous": false,
      "inputs": [
        {
          "indexed": false,
          "internalType": "string",
          "name": "title",
          "type": "string"
        },
        {
          "indexed": false,
          "internalType": "uint256",
          "name": "requiredAmount",
          "type": "uint256"
        },
        {
          "indexed": true,
          "internalType": "address",
          "name": "owner",
          "type": "address"
        },
        {
          "indexed": false,
          "internalType": "address",
          "name": "campaignAddress",
          "type": "address"
        },
        {
          "indexed": false,
          "internalType": "string",
          "name": "imgUri",
          "type": "string"
        },
        {
          "indexed": true,
          "internalType": "uint256",
          "name": "timestamp",
          "type": "uint256"
        },
        {
          "indexed": true,
          "internalType": "string",
          "name": "category",
          "type": "string"
        }
      ],
      "name": "campaignCreated",
      "type": "event"
    },
    {
      "inputs": [
        {
          "internalType": "string",
          "name": "campaignTitle",
          "type": "string"
        },
        {
          "internalType": "uint256",
          "name": "requiredCampaignAmount",
          "type": "uint256"
        },
        {
          "internalType": "string",
          "name": "imgUrl",
          "type": "string"
        },
        {
          "internalType": "string",
          "name": "category",
          "type": "string"
        },
        {
          "internalType": "string",
          "name": "storyUri",
          "type": "string"
        }
      ],
      "name": "createCampaign",
      "outputs": [],
      "stateMutability": "nonpayable",
      "type": "function"
    },
    {
      "inputs": [
        {
          "internalType": "uint256",
          "name": "",
          "type": "uint256"
        }
      ],
      "name": "deployedCampaigns",
      "outputs": [
        {
          "internalType": "address",
          "name": "",
          "type": "address"
        }
      ],
      "stateMutability": "view",
      "type": "function"
    },
    {
      "inputs": [],
      "name": "getDeployedCampaigns",
      "outputs": [
        {
          "internalType": "address[]",
          "name": "",
          "type": "address[]"
        }
      ],
      "stateMutability": "view",
      "type": "function"
    }
  ],
  "bytecode": "0x608060405234801561001057600080fd5b506115ee806100206000396000f3fe60806040523480156200001157600080fd5b5060043610620000465760003560e01c8063339d50a5146200004b5780634acb9d4f1462000081578063c658857d14620000a3575b600080fd5b6200006960048036038101906200006391906200030d565b620000c3565b60405162000078919062000384565b60405180910390f35b6200008b62000103565b6040516200009a91906200046f565b60405180910390f35b620000c16004803603810190620000bb9190620005f5565b62000193565b005b60008181548110620000d457600080fd5b906000526020600020016000915054906101000a900473ffffffffffffffffffffffffffffffffffffffff1681565b606060008054806020026020016040519081016040528092919081815260200182805480156200018957602002820191906000526020600020905b8160009054906101000a900473ffffffffffffffffffffffffffffffffffffffff1673ffffffffffffffffffffffffffffffffffffffff16815260200190600101908083116200013e575b5050505050905090565b600085858584604051620001a790620002b0565b620001b694939291906200079d565b604051809103906000f080158015620001d3573d6000803e3d6000fd5b5090506000819080600181540180825580915050600190039060005260206000200160009091909190916101000a81548173ffffffffffffffffffffffffffffffffffffffff021916908373ffffffffffffffffffffffffffffffffffffffff1602179055508260405162000249919062000841565b6040518091039020423373ffffffffffffffffffffffffffffffffffffffff167ff932d905365211c7f19fda44bcb55b1adbe63365f7cdae1c35ddcb3e38ed1d468989868a604051620002a094939291906200085a565b60405180910390a4505050505050565b610d0380620008b683390190565b6000604051905090565b600080fd5b600080fd5b6000819050919050565b620002e781620002d2565b8114620002f357600080fd5b50565b6000813590506200030781620002dc565b92915050565b600060208284031215620003265762000325620002c8565b5b60006200033684828501620002f6565b91505092915050565b600073ffffffffffffffffffffffffffffffffffffffff82169050919050565b60006200036c826200033f565b9050919050565b6200037e816200035f565b82525050565b60006020820190506200039b600083018462000373565b92915050565b600081519050919050565b600082825260208201905092915050565b6000819050602082019050919050565b620003d8816200035f565b82525050565b6000620003ec8383620003cd565b60208301905092915050565b6000602082019050919050565b60006200041282620003a1565b6200041e8185620003ac565b93506200042b83620003bd565b8060005b8381101562000462578151620004468882620003de565b97506200045383620003f8565b9250506001810190506200042f565b5085935050505092915050565b600060208201905081810360008301526200048b818462000405565b905092915050565b600080fd5b600080fd5b6000601f19601f8301169050919050565b7f4e487b7100000000000000000000000000000000000000000000000000000000600052604160045260246000fd5b620004e8826200049d565b810181811067ffffffffffffffff821117156200050a5762000509620004ae565b5b80604052505050565b60006200051f620002be565b90506200052d8282620004dd565b919050565b600067ffffffffffffffff82111562000550576200054f620004ae565b5b6200055b826200049d565b9050602081019050919050565b82818337600083830152505050565b60006200058e620005888462000532565b62000513565b905082815260208101848484011115620005ad57620005ac62000498565b5b620005ba84828562000568565b509392505050565b600082601f830112620005da57620005d962000493565b5b8135620005ec84826020860162000577565b91505092915050565b600080600080600060a08688031215620006145762000613620002c8565b5b600086013567ffffffffffffffff811115620006355762000634620002cd565b5b6200064388828901620005c2565b95505060206200065688828901620002f6565b945050604086013567ffffffffffffffff8111156200067a5762000679620002cd565b5b6200068888828901620005c2565b935050606086013567ffffffffffffffff811115620006ac57620006ab620002cd565b5b620006ba88828901620005c2565b925050608086013567ffffffffffffffff811115620006de57620006dd620002cd565b5b620006ec88828901620005c2565b9150509295509295909350565b600081519050919050565b600082825260208201905092915050565b60005b838110156200073557808201518184015260208101905062000718565b8381111562000745576000848401525b50505050565b60006200075882620006f9565b62000764818562000704565b93506200077681856020860162000715565b62000781816200049d565b840191505092915050565b6200079781620002d2565b82525050565b60006080820190508181036000830152620007b981876200074b565b9050620007ca60208301866200078c565b8181036040830152620007de81856200074b565b90508181036060830152620007f481846200074b565b905095945050505050565b600081905092915050565b60006200081782620006f9565b620008238185620007ff565b93506200083581856020860162000715565b80840191505092915050565b60006200084f82846200080a565b915081905092915050565b600060808201905081810360008301526200087681876200074b565b90506200088760208301866200078c565b62000896604083018562000373565b8181036060830152620008aa81846200074b565b90509594505050505056fe60806040523480156200001157600080fd5b5060405162000d0338038062000d0383398181016040528101906200003791906200035c565b83600090805190602001906200004f929190620000d4565b508260018190555081600290805190602001906200006f929190620000d4565b50806003908051906020019062000088929190620000d4565b5033600460006101000a81548173ffffffffffffffffffffffffffffffffffffffff021916908373ffffffffffffffffffffffffffffffffffffffff1602179055505050505062000490565b828054620000e2906200045a565b90600052602060002090601f01602090048101928262000106576000855562000152565b82601f106200012157805160ff191683800117855562000152565b8280016001018555821562000152579182015b828111156200015157825182559160200191906001019062000134565b5b50905062000161919062000165565b5090565b5b808211156200018057600081600090555060010162000166565b5090565b6000604051905090565b600080fd5b600080fd5b600080fd5b600080fd5b6000601f19601f8301169050919050565b7f4e487b7100000000000000000000000000000000000000000000000000000000600052604160045260246000fd5b620001ed82620001a2565b810181811067ffffffffffffffff821117156200020f576200020e620001b3565b5b80604052505050565b60006200022462000184565b9050620002328282620001e2565b919050565b600067ffffffffffffffff821115620002555762000254620001b3565b5b6200026082620001a2565b9050602081019050919050565b60005b838110156200028d57808201518184015260208101905062000270565b838111156200029d576000848401525b50505050565b6000620002ba620002b48462000237565b62000218565b905082815260208101848484011115620002d957620002d86200019d565b5b620002e68482856200026d565b509392505050565b600082601f83011262000306576200030562000198565b5b815162000318848260208601620002a3565b91505092915050565b6000819050919050565b620003368162000321565b81146200034257600080fd5b50565b60008151905062000356816200032b565b92915050565b600080600080608085870312156200037957620003786200018e565b5b600085015167ffffffffffffffff8111156200039a576200039962000193565b5b620003a887828801620002ee565b9450506020620003bb8782880162000345565b935050604085015167ffffffffffffffff811115620003df57620003de62000193565b5b620003ed87828801620002ee565b925050606085015167ffffffffffffffff81111562000411576200041062000193565b5b6200041f87828801620002ee565b91505092959194509250565b7f4e487b7100000000000000000000000000000000000000000000000000000000600052602260045260246000fd5b600060028204905060018216806200047357607f821691505b602082108114156200048a57620004896200042b565b5b50919050565b61086380620004a06000396000f3fe6080604052600436106100705760003560e01c80638da5cb5b1161004e5780638da5cb5b146100f65780639632e72014610121578063ed88c68e1461014c578063f3ccaac01461015657610070565b806346c922d11461007557806348b9ef40146100a05780634a79d50c146100cb575b600080fd5b34801561008157600080fd5b5061008a610181565b6040516100979190610577565b60405180910390f35b3480156100ac57600080fd5b506100b561020f565b6040516100c291906105b2565b60405180910390f35b3480156100d757600080fd5b506100e0610215565b6040516100ed9190610577565b60405180910390f35b34801561010257600080fd5b5061010b6102a3565b604051610118919061060e565b60405180910390f35b34801561012d57600080fd5b506101366102c9565b60405161014391906105b2565b60405180910390f35b6101546102cf565b005b34801561016257600080fd5b5061016b610450565b6040516101789190610577565b60405180910390f35b6003805461018e90610658565b80601f01602080910402602001604051908101604052809291908181526020018280546101ba90610658565b80156102075780601f106101dc57610100808354040283529160200191610207565b820191906000526020600020905b8154815290600101906020018083116101ea57829003601f168201915b505050505081565b60015481565b6000805461022290610658565b80601f016020809104026020016040519081016040528092919081815260200182805461024e90610658565b801561029b5780601f106102705761010080835404028352916020019161029b565b820191906000526020600020905b81548152906001019060200180831161027e57829003601f168201915b505050505081565b600460009054906101000a900473ffffffffffffffffffffffffffffffffffffffff1681565b60055481565b600154346005546102e091906106b9565b1115610321576040517f08c379a00000000000000000000000000000000000000000000000000000000081526004016103189061075b565b60405180910390fd5b346005600082825461033391906106b9565b925050819055506000600460009054906101000a900473ffffffffffffffffffffffffffffffffffffffff1673ffffffffffffffffffffffffffffffffffffffff1634604051610382906107ac565b60006040518083038185875af1925050503d80600081146103bf576040519150601f19603f3d011682016040523d82523d6000602084013e6103c4565b606091505b5050905080610408576040517f08c379a00000000000000000000000000000000000000000000000000000000081526004016103ff9061080d565b60405180910390fd5b42343373ffffffffffffffffffffffffffffffffffffffff167fe6add99d06d9ad7fc456e746aa162eed6211c5002ef2dacdd67b8d2016822fba60405160405180910390a450565b6002805461045d90610658565b80601f016020809104026020016040519081016040528092919081815260200182805461048990610658565b80156104d65780601f106104ab576101008083540402835291602001916104d6565b820191906000526020600020905b8154815290600101906020018083116104b957829003601f168201915b505050505081565b600081519050919050565b600082825260208201905092915050565b60005b838110156105185780820151818401526020810190506104fd565b83811115610527576000848401525b50505050565b6000601f19601f8301169050919050565b6000610549826104de565b61055381856104e9565b93506105638185602086016104fa565b61056c8161052d565b840191505092915050565b60006020820190508181036000830152610591818461053e565b905092915050565b6000819050919050565b6105ac81610599565b82525050565b60006020820190506105c760008301846105a3565b92915050565b600073ffffffffffffffffffffffffffffffffffffffff82169050919050565b60006105f8826105cd565b9050919050565b610608816105ed565b82525050565b600060208201905061062360008301846105ff565b92915050565b7f4e487b7100000000000000000000000000000000000000000000000000000000600052602260045260246000fd5b6000600282049050600182168061067057607f821691505b6020821081141561068457610683610629565b5b50919050565b7f4e487b7100000000000000000000000000000000000000000000000000000000600052601160045260246000fd5b60006106c482610599565b91506106cf83610599565b9250827fffffffffffffffffffffffffffffffffffffffffffffffffffffffffffffffff038211156107045761070361068a565b5b828201905092915050565b7f446f6e6174696f6e206578636565647320726571756972656420616d6f756e74600082015250565b60006107456020836104e9565b91506107508261070f565b602082019050919050565b6000602082019050818103600083015261077481610738565b9050919050565b600081905092915050565b50565b600061079660008361077b565b91506107a182610786565b600082019050919050565b60006107b782610789565b9150819050919050565b7f5472616e73666572206661696c65640000000000000000000000000000000000600082015250565b60006107f7600f836104e9565b9150610802826107c1565b602082019050919050565b60006020820190508181036000830152610826816107ea565b905091905056fea2646970667358221220513e3db8cedde2ababa80231c999917b27a64dfd02f0c16d9094ce40ddaa23cf64736f6c634300080a0033a264697066735822122022787a9d660b68527cdec7ed3a7fb29b254d2b582f6db970c6f696322d95e0c764736f6c634300080a0033",
  "linkReferences": {},
  "deployedLinkReferences": {}
}